:100000000C942A000C9447000C9447000C94470071
:100010000C94E0090C94AD090C9447000C947A09F7
:100020000C9447000C9447090C9414090C94E108B3
:100030000C9447000C9447000C9447000C94470024
:100040000C9447000C9447000C9447000C94470014
:100050000C94470011241FBECFE5D8E0DEBFCDBF12
:1000600010E0A0E6B0E0EAEEF6E502C005900D92E1
:10007000A83BB107D9F710E0A8EBB0E001C01D9292
:10008000A53CB107E1F70E94F3270C94732B0C9465
:100090000000EF92FF920F931F937B018C0120E0F1
:1000A00030E040E05FE40E94490388238CF0C801FF
:1000B000B70120E030E040E05FE40E94C1010E940F
:1000C000A9039B01AC01205030404040504806C07D
:1000D000C801B7010E94A9039B01AC01B901CA0183
:1000E0001F910F91FF90EF900895A0E0B0E0EBE733
:1000F000F0E00C940B2BDC012B01FA019C91923067
:1001000008F439C1EB018881823008F433C194309E
:1001100069F4843009F02FC111969C91119789815F
:10012000981709F428C1AFE8B0E025C1843009F47C
:1001300021C18230A9F4923009F01DC19A01AD01AC
:1001400088E0EA010990AE01E90109929E0181501F
:10015000C1F7E201898111969C918923818308C1AD
:10016000923009F407C112962D903C901397EB0141
:100170008A819B811496AD90BD90CD90DC901797AD
:10018000EC80FD800E811F819101281B390BB90184
:1001900037FF04C066277727621B730B6032710537
:1001A0000CF061C0121613066CF537014801062EDB
:1001B00004C096948794779467940A94D2F721E0C8
:1001C00030E040E050E004C0220F331F441F551FB1
:1001D0006A95D2F721503040404050402E213F21B7
:1001E00040235123211531054105510521F021E01E
:1001F00030E040E050E079018A01E628F72808293C
:1002000019293CC0232BD1F1260E371E350146019A
:10021000062E04C096948794779467940A94D2F734
:1002200021E030E040E050E004C0220F331F441FC3
:10023000551F6A95D2F721503040404050402A2146
:100240003B214C215D21211531054105510521F04E
:1002500021E030E040E050E059016A01A628B728CB
:10026000C828D9280BC0821593052CF01C01AA249C
:10027000BB24650103C0EE24FF24870111969C91E5
:10028000D20111968C91981709F445C0992339F041
:10029000A80197012A193B094C095D0906C0A6016E
:1002A00095012E193F09400B510B57FD08C01182D3
:1002B0003382228224833583468357831DC081E0A5
:1002C00081833382228288279927DC01821B930B4A
:1002D000A40BB50B84839583A683B7830DC0220F2F
:1002E000331F441F551F24833583468357838281E0
:1002F000938101979383828324813581468157813D
:10030000DA01C9010197A109B1098F5F9F4FAF4F72
:10031000BF4328F30BC0918333822282EA0CFB1C7B
:100320000C1D1D1DE482F5820683178383E0808304
:10033000248135814681578157FF1AC0C901AA27F8
:1003400097FDA095BA2F81709070A070B0705695EF
:10035000479537952795822B932BA42BB52B848318
:100360009583A683B7838281938101969383828349
:10037000DF0101C0D201CD01CDB7DEB7E2E10C94BF
:10038000272BA0E2B0E0E7ECF1E00C94172B698397
:100390007A838B839C832D833E834F835887E9E048
:1003A000EE2EF12CEC0EFD1ECE010196B7010E943F
:1003B000D2048E010F5E1F4FCE010596B8010E9438
:1003C000D2048A8991E089278A8BC701B801AE01DE
:1003D000475E5F4F0E9475000E94FD03A096E6E015
:1003E0000C94332BA0E2B0E0E8EFF1E00C94172B73
:1003F00069837A838B839C832D833E834F835887C5
:10040000F9E0EF2EF12CEC0EFD1ECE010196B701A6
:100410000E94D2048E010F5E1F4FCE010596B801D7
:100420000E94D204C701B801AE01475E5F4F0E942F
:1004300075000E94FD03A096E6E00C94332BA0E229
:10044000B0E0E5E2F2E00C940B2B69837A838B83B6
:100450009C832D833E834F835887CE010196BE0136
:10046000675F7F4F0E94D204CE010596BE016F5E8A
:100470007F4F0E94D2049985923088F0898982301A
:10048000C8F0943019F4823051F404C0843029F457
:10049000923081F48FE890E0C6C0923049F420E0B9
:1004A0009A858A89981321E02A87CE010996BBC0D4
:1004B000823049F420E09A858A89981321E02A8BBA
:1004C000CE014196B0C02D843E844F8458886D88FB
:1004D0007E888F88988CEE24FF248701AA24BB2471
:1004E000650140E050E060E070E0E0E0F0E0C10174
:1004F00081709070892BE9F0E60CF71C081D191D1E
:100500009A01AB012A0D3B1D4C1D5D1D80E090E062
:10051000A0E0B0E0E614F7040805190520F481E036
:1005200090E0A0E0B0E0BA01A901480F591F6A1F8E
:100530007B1FAA0CBB1CCC1CDD1C97FE08C081E0F5
:1005400090E0A0E0B0E0A82AB92ACA2ADB2A3196B6
:10055000E032F10549F0660C771C881C991C569412
:10056000479437942794C3CFFA85EA892B893C892D
:100570008B859C85280F391F2E5F3F4F17C0CA01FE
:1005800081709070892B61F016950795F794E79428
:1005900080E090E0A0E0B0E8E82AF92A0A2B1B2BC3
:1005A00076956795579547952F5F3F4F77FDE7CF36
:1005B0000CC0440F551F661F771F17FD4160EE0CDE
:1005C000FF1C001F111F21503040403090E05907A0
:1005D00090E0690790E4790760F32B8F3C8FDB0193
:1005E000CA018F779070A070B07080349105A1051A
:1005F000B10561F447FD0AC0E114F10401051105DC
:1006000029F0405C5F4F6F4F7F4F40781A8EFE1786
:1006100011F081E08A8F4D8F5E8F6F8F78A383E01A
:10062000898FCE0149960E94FD03A096E2E10C94C9
:10063000272BA8E1B0E0EFE1F3E00C94172B6983DE
:100640007A838B839C832D833E834F83588789E0F5
:10065000E82EF12CEC0EFD1ECE010196B7010E9492
:10066000D2048E010F5E1F4FCE010596B8010E9485
:10067000D2048985823040F08989823028F0C70110
:10068000B8010E944A0501C08FEF6896E6E00C941D
:10069000332BA8E1B0E0EFE4F3E00C94172B69836F
:1006A0007A838B839C832D833E834F83588789E095
:1006B000E82EF12CEC0EFD1ECE010196B7010E9432
:1006C000D2048E010F5E1F4FCE010596B8010E9425
:1006D000D2048985823040F08989823028F0C701B0
:1006E000B8010E944A0501C08FEF6896E6E00C94BD
:1006F000332BA8E1B0E0EFE7F3E00C94172B69830C
:100700007A838B839C832D833E834F83588789E034
:10071000E82EF12CEC0EFD1ECE010196B7010E94D1
:10072000D2048E010F5E1F4FCE010596B8010E94C4
:10073000D2048985823040F08989823028F0C7014F
:10074000B8010E944A0501C081E06896E6E00C9479
:10075000332BACE0B0E0EFEAF3E00C941B2B6983A1
:100760007A838B839C83CE010196BE016B5F7F4FA2
:100770000E94D2048D81823061F1823050F1843048
:1007800021F48E81882351F12EC02F81388537FDC9
:1007900020C06E812F3131051CF06623F9F023C093
:1007A0008EE190E0821B930B29853A854B855C8511
:1007B00004C056954795379527958A95D2F76623B5
:1007C000B1F050954095309521953F4F4F4F5F4F79
:1007D0000EC020E030E040E050E009C02FEF3FEFD6
:1007E0004FEF5FE704C020E030E040E050E8B9019F
:1007F000CA012C96E2E00C94372BDF92EF92FF9225
:100800000F931F93FC01E480F58006811781D1804E
:100810008081823048F480E090E0A0E1B0E0E82AF6
:10082000F92A0A2B1B2BA5C0843009F49FC0823003
:1008300021F4EE24FF24870105C0E114F104010531
:10084000110519F4E0E0F0E096C0628173819FEF3A
:10085000623879070CF05BC022E83FEF261B370BAC
:100860002A3131052CF020E030E040E050E02AC091
:10087000B801A701022E04C0769567955795479554
:100880000A94D2F781E090E0A0E0B0E004C0880FC5
:10089000991FAA1FBB1F2A95D2F70197A109B10979
:1008A0008E219F21A023B1230097A105B10521F03E
:1008B00081E090E0A0E0B0E09A01AB01282B392B59
:1008C0004A2B5B2BDA01C9018F779070A070B07052
:1008D00080349105A105B10539F427FF09C0205CDA
:1008E0003F4F4F4F5F4F04C0215C3F4F4F4F5F4F13
:1008F000E0E0F0E02030A0E03A07A0E04A07A0E402
:100900005A0710F0E1E0F0E079018A0127C0603871
:10091000710564F5FB01E158FF4FD801C7018F77DE
:100920009070A070B07080349105A105B10539F4C4
:10093000E7FE0DC080E490E0A0E0B0E004C08FE3EB
:1009400090E0A0E0B0E0E80EF91E0A1F1B1F17FFA1
:1009500005C016950795F794E794319687E01695AC
:100960000795F794E7948A95D1F705C0EE24FF2404
:100970008701EFEFF0E06E2F679566276795902F60
:100980009F77D794DD24D7948E2F8695492F462BB9
:10099000582F5D29B701CA011F910F91FF90EF9069
:1009A000DF900895FC01DB01408151812281622F9B
:1009B0006F7770E0221F2227221F9381892F880FD3
:1009C000822B282F30E0991F9927991F11969C930D
:1009D000119721153105A9F54115510561057105DD
:1009E00011F482E037C082E89FEF13969C938E93B8
:1009F00012979A01AB0167E0220F331F441F551F66
:100A00006A95D1F783E08C930DC0220F331F441FEA
:100A1000551F12968D919C911397019713969C9355
:100A20008E931297203080E0380780E0480780E4FA
:100A3000580758F314962D933D934D935C93179755
:100A400008952F3F310579F4411551056105710570
:100A500019F484E08C93089564FF03C081E08C93C3
:100A600012C01C9210C02F57304013963C932E9307
:100A7000129783E08C9387E0440F551F661F771F02
:100A80008A95D1F7706414964D935D936D937C9322
:100A9000179708951F93DC01FB019C91923008F495
:100AA00047C08081823008F443C0943051F41196DD
:100AB0001C91843099F58181682F70E0611B710968
:100AC0003FC0843021F0923031F48230B9F181811D
:100AD000882389F12DC011961C9111978230F1F075
:100AE00081811817D9F412962D913C911397828128
:100AF00093818217930794F028173907BCF0149656
:100B00008D919D910D90BC91A02D248135814681C0
:100B10005781281739074A075B0718F4112341F05A
:100B20000AC082179307A407B50740F4112319F0F0
:100B300061E070E005C06FEF7FEF02C060E070E041
:100B4000CB011F910895DF93CF9300D000D00F9277
:100B5000CDB7DEB789836A834B838981843008F0FF
:100B6000D5C08A81883008F0D1C08981282F30E033
:100B70003D832C838C819D818130910509F443C094
:100B80002C813D81223031052CF48C819D81009790
:100B900071F0BCC02C813D812230310509F45FC069
:100BA0008C819D818330910509F485C0AFC08B8114
:100BB0008823A9F4AAE3B0E0EAE3F0E08081482FBB
:100BC0008A81282F30E081E090E0022E02C0880F59
:100BD000991F0A94E2F7809584238C9397C0AAE327
:100BE000B0E0EAE3F0E08081482F8A81282F30E0EE
:100BF00081E090E0022E02C0880F991F0A94E2F76C
:100C0000842B8C9383C08B818823A9F4A7E3B0E065
:100C1000E7E3F0E08081482F8A81282F30E081E0EF
:100C200090E0022E02C0880F991F0A94E2F7809587
:100C300084238C936BC0A7E3B0E0E7E3F0E080810E
:100C4000482F8A81282F30E081E090E0022E02C0F8
:100C5000880F991F0A94E2F7842B8C9357C08B81DD
:100C60008823A9F4A4E3B0E0E4E3F0E08081482F16
:100C70008A81282F30E081E090E0022E02C0880FA8
:100C8000991F0A94E2F7809584238C933FC0A4E3D4
:100C9000B0E0E4E3F0E08081482F8A81282F30E043
:100CA00081E090E0022E02C0880F991F0A94E2F7BB
:100CB000842B8C932BC08B818823A9F4A1E3B0E013
:100CC000E1E3F0E08081482F8A81282F30E081E045
:100CD00090E0022E02C0880F991F0A94E2F78095D7
:100CE00084238C9313C0A1E3B0E0E1E3F0E08081C2
:100CF000482F8A81282F30E081E090E0022E02C048
:100D0000880F991F0A94E2F7842B8C930F900F9011
:100D10000F900F900F90CF91DF910895DF93CF93B5
:100D200000D000D00F92CDB7DEB789836A834B83A2
:100D30008981843008F0D5C08A81883008F0D1C01C
:100D40008981282F30E03D832C838C819D818130E7
:100D5000910509F443C02C813D81223031052CF4EA
:100D60008C819D81009771F0BCC02C813D81223027
:100D7000310509F45FC08C819D818330910509F4B0
:100D800085C0AFC08B818823A9F4ABE3B0E0EBE36F
:100D9000F0E08081482F8A81282F30E081E090E0C8
:100DA000022E02C0880F991F0A94E2F780958423CF
:100DB0008C9397C0ABE3B0E0EBE3F0E08081482F89
:100DC0008A81282F30E081E090E0022E02C0880F57
:100DD000991F0A94E2F7842B8C9383C08B8188231C
:100DE000A9F4A8E3B0E0E8E3F0E08081482F8A812D
:100DF000282F30E081E090E0022E02C0880F991F7A
:100E00000A94E2F7809584238C936BC0A8E3B0E04A
:100E1000E8E3F0E08081482F8A81282F30E081E0EC
:100E200090E0022E02C0880F991F0A94E2F7842BEB
:100E30008C9357C08B818823A9F4A5E3B0E0E5E348
:100E4000F0E08081482F8A81282F30E081E090E017
:100E5000022E02C0880F991F0A94E2F7809584231E
:100E60008C933FC0A5E3B0E0E5E3F0E08081482F3C
:100E70008A81282F30E081E090E0022E02C0880FA6
:100E8000991F0A94E2F7842B8C932BC08B818823C3
:100E9000A9F4A2E3B0E0E2E3F0E08081482F8A8188
:100EA000282F30E081E090E0022E02C0880F991FC9
:100EB0000A94E2F7809584238C9313C0A2E3B0E0F8
:100EC000E2E3F0E08081482F8A81282F30E081E042
:100ED00090E0022E02C0880F991F0A94E2F7842B3B
:100EE0008C930F900F900F900F900F90CF91DF91F8
:100EF0000895DF93CF9300D000D00F92CDB7DEB727
:100F00008A836B8319828A81843008F084C08B8144
:100F1000883008F080C08A81282F30E03D832C8300
:100F20004C815D814130510579F18C819D81823008
:100F3000910534F42C813D812115310569F06BC098
:100F40004C815D8142305105B9F18C819D818330A6
:100F5000910509F449C05FC0E9E3F0E08081282FE2
:100F600030E08B81882F90E0A90102C0559547950C
:100F70008A95E2F7CA0181709070882319F081E0A8
:100F8000898349C0198247C0E6E3F0E08081282FB9
:100F900030E08B81882F90E0A90102C055954795DC
:100FA0008A95E2F7CA0181709070882319F081E078
:100FB000898331C019822FC0E3E3F0E08081282FBC
:100FC00030E08B81882F90E0A90102C055954795AC
:100FD0008A95E2F7CA0181709070882319F081E048
:100FE000898319C0198217C0E0E3F0E08081282FBF
:100FF00030E08B81882F90E0A90102C0559547957C
:101000008A95E2F7CA0181709070882319F081E017
:10101000898301C0198289810F900F900F900F90E2
:101020000F90CF91DF910895DF93CF9300D000D040
:10103000CDB7DEB789836A838981843090F5898151
:10104000282F30E03C832B838B819C81813091055C
:10105000D1F02B813C81223031052CF48B819C8195
:10106000009761F01EC02B813C812230310581F058
:101070008B819C818330910581F013C0EAE3F0E01D
:101080008A8180830EC0E7E3F0E08A81808309C013
:10109000E4E3F0E08A81808304C0E1E3F0E08A8148
:1010A00080830F900F900F900F90CF91DF91089554
:1010B000DF93CF9300D000D0CDB7DEB789836A83AA
:1010C0008981853090F58981282F30E03C832B83FE
:1010D0008B819C8181309105D1F02B813C81223024
:1010E00031052CF48B819C81009761F01EC02B810F
:1010F0003C812230310581F08B819C8183309105C8
:1011000081F013C0EBE3F0E08A8180830EC0E8E356
:10111000F0E08A81808309C0E5E3F0E08A81808382
:1011200004C0E2E3F0E08A8180830F900F900F907B
:101130000F90CF91DF910895DF93CF9300D000D02F
:10114000CDB7DEB78A8319828A81843090F58A818F
:10115000282F30E03C832B838B819C81813091054B
:10116000D1F02B813C81223031052CF48B819C8184
:10117000009761F01EC02B813C812230310581F047
:101180008B819C818330910581F013C0E9E3F0E00D
:10119000808189830EC0E6E3F0E08081898309C005
:1011A000E3E3F0E08081898304C0E0E3F0E0808144
:1011B000898389810F900F900F900F90CF91DF91CD
:1011C00008951F920F920FB60F9211242F933F9301
:1011D0004F935F936F937F938F939F93AF93BF933F
:1011E000EF93FF93DF93CF93CDB7DEB78091B80035
:1011F0009091B900009729F0E091B800F091B90002
:101200000995CF91DF91FF91EF91BF91AF919F91A0
:101210008F917F916F915F914F913F912F910F909F
:101220000FBE0F901F9018951F920F920FB60F923E
:1012300011242F933F934F935F936F937F938F93DB
:101240009F93AF93BF93EF93FF93DF93CF93CDB76C
:10125000DEB78091B8009091B900009729F0E09135
:10126000B800F091B9000995CF91DF91FF91EF910E
:10127000BF91AF919F918F917F916F915F914F91AE
:101280003F912F910F900FBE0F901F9018951F92B6
:101290000F920FB60F9211242F933F934F935F93AA
:1012A0006F937F938F939F93AF93BF93EF93FF932E
:1012B000DF93CF93CDB7DEB78091BA009091BB009A
:1012C000009729F0E091BA00F091BB000995CF9109
:1012D000DF91FF91EF91BF91AF919F918F917F919E
:1012E0006F915F914F913F912F910F900FBE0F9093
:1012F0001F9018951F920F920FB60F9211242F93E3
:101300003F934F935F936F937F938F939F93AF938D
:10131000BF93EF93FF93DF93CF93CDB7DEB7809169
:10132000BA009091BB00009729F0E091BA00F091CB
:10133000BB000995CF91DF91FF91EF91BF91AF91E4
:101340009F918F917F916F915F914F913F912F91DD
:101350000F900FBE0F901F9018951F920F920FB60F
:101360000F9211242F933F934F935F936F937F932B
:101370008F939F93AF93BF93EF93FF93DF93CF939D
:10138000CDB7DEB78091BC009091BD00009729F0E9
:10139000E091BC00F091BD000995CF91DF91FF91E4
:1013A000EF91BF91AF919F918F917F916F915F91DD
:1013B0004F913F912F910F900FBE0F901F90189556
:1013C0001F920F920FB60F9211242F933F934F93BA
:1013D0005F936F937F938F939F93AF93BF93EF939D
:1013E000FF93DF93CF93CDB7DEB78091BC00909190
:1013F000BD00009729F0E091BC00F091BD00099577
:10140000CF91DF91FF91EF91BF91AF919F918F911C
:101410007F916F915F914F913F912F910F900FBEF0
:101420000F901F901895DF93CF9300D0CDB7DEB704
:101430009A838983A3E5B0E0E3E5F0E08081282F7B
:101440002F77E981FA818181882F90E09695982FF6
:10145000882797958795822B8C93A3E5B0E0E3E5E9
:10146000F0E08081282F2F7BE981FA818281882F0B
:1014700090E09695982F88279795879595958795CD
:10148000822B8C93A3E5B0E0E3E5F0E08081282F88
:10149000277FE981FA8182818695882F90E0880FE5
:1014A000991F880F991F880F991F822B8C93A3E592
:1014B000B0E0E3E5F0E08081282F2F7CE981FA811C
:1014C0008381882F90E082959295907F9827807FE6
:1014D0009827822B8C93A3E5B0E0E3E5F0E08081D0
:1014E000982F987FE981FA818081892B8C93A2E5DE
:1014F000B0E0E981FA8186818C93ACE5B0E0E981C6
:10150000FA8187818C93A9E5B0E0E9E5F0E080817C
:10151000282F2D7FE981FA818481882F90E0880F20
:10152000991F822B8C93A9E5B0E0E9E5F0E080817A
:10153000982F9E7FE981FA818581892B8C930F906A
:101540000F90CF91DF910895DF93CF93CDB7DEB7A2
:10155000E3E5F0E01082A9E5B0E0E9E5F0E08081A4
:101560008C7F8C93CF91DF910895DF93CF9300D040
:10157000CDB7DEB79A83898389819A819093B90028
:101580008093B8000F900F90CF91DF910895DF9373
:10159000CF9300D0CDB7DEB79A838983E2E5F0E040
:1015A000108281E063E041E00E94A305E3E5F0E002
:1015B00088E68083A3E5B0E0E3E5F0E09081E9818F
:1015C000FA818081892B8C930F900F90CF91DF91BE
:1015D0000895DF93CF9300D0CDB7DEB79A83898388
:1015E000E2E5F0E01082ACE5B0E0E981FA818081CB
:1015F0008C930F900F90CF91DF910895DF93CF934D
:1016000000D0CDB7DEB79A838983AFE4B0E0EFE4D2
:10161000F0E08081282F2F73E981FA818081882F63
:1016200090E0002496958795079496958795079462
:10163000982F802D822B8C93AFE4B0E0EFE4F0E0A4
:101640008081282F2F7CE981FA818181882F90E089
:1016500082959295907F9827807F9827822B8C93F4
:10166000AFE4B0E0EFE4F0E08081282F277FE9814C
:10167000FA818281882F90E0880F991F880F991F27
:10168000880F991F822B8C93AFE4B0E0EFE4F0E079
:101690008081282F2B7FE981FA818381882F90E038
:1016A000880F991F880F991F822B8C93AFE4B0E0AD
:1016B000EFE4F0E08081282F2C7FE981FA81878197
:1016C000882F90E0002496958795079496958795A6
:1016D0000794982F802D082E892F000C881F990BB6
:1016E000000C881F991F822B8C93AEE4B0E0EEE4CF
:1016F000F0E08081282F277EE981FA818781869515
:101700008695882F90E0880F991F880F991F880F62
:10171000991F822B8C93AEE4B0E0EEE4F0E0808180
:10172000282F2F77E981FA818581882F90E096957F
:10173000982F882797958795822B8C93AEE4B0E0FD
:10174000EEE4F0E08081282F2F7BE981FA8184810B
:10175000882F90E000249695879507949695879515
:101760000794982F802D822B8C93AEE4B0E0EEE4AA
:10177000F0E08081982F987FE981FA818681892B1A
:101780008C93A9E5B0E0E9E5F0E08081282F2F7E79
:10179000E981FA818085882F90E082959295907FEB
:1017A0009827807F9827822B8C93A9E5B0E0E9E504
:1017B000F0E08081282F277FE981FA818185882FB9
:1017C00090E0880F991F880F991F880F991F822B0F
:1017D0008C93A9E5B0E0E9E5F0E08081282F2B7F2C
:1017E000E981FA818285882F90E0880F991F880F00
:1017F000991F822B8C93ACE4B0E0E981FA81838558
:10180000948511969C938E93AAE4B0E0E981FA81C5
:101810008585968511969C938E93A8E4B0E0E98126
:10182000FA818785908911969C938E930F900F90E3
:10183000CF91DF910895DF93CF9300D0CDB7DEB77E
:101840009A83898389819A819093BB008093BA009F
:101850000F900F90CF91DF910895DF93CF93CDB785
:10186000DEB7EFE4F0E01082EEE4F0E01082A9E5EC
:10187000B0E0E9E5F0E08081837C8C93CF91DF914B
:101880000895DF93CF9300D0CDB7DEB79A838983D5
:10189000A5E4B0E0E5E4F0E08081282F2F77E9812E
:1018A000FA818181882F90E09695982F88279795C7
:1018B0008795822B8C93A5E4B0E0E5E4F0E080818D
:1018C000282F2F7BE981FA818281882F90E09695DD
:1018D000982F88279795879595958795822B8C9338
:1018E000A5E4B0E0E5E4F0E08081282F277FE981DE
:1018F000FA8182818695882F90E0880F991F880F42
:10190000991F880F991F822B8C93A5E4B0E0E5E422
:10191000F0E08081282F2F7CE981FA818381882F54
:1019200090E082959295907F9827807F9827822BD0
:101930008C93A5E4B0E0E5E4F0E08081982F987FF7
:10194000E981FA818081892B8C93A2E5B0E0E9815D
:10195000FA8186818C93A3E4B0E0E981FA818781E2
:101960008C93A9E5B0E0E9E5F0E08081282F2F779E
:10197000E981FA818481882F90E09695982F8827B5
:1019800097958795822B8C93A9E5B0E0E9E5F0E087
:101990008081982F9F7BE981FA818581892B8C93A7
:1019A0000F900F90CF91DF910895DF93CF93CDB734
:1019B000DEB7E5E4F0E01082A9E5B0E0E9E5F0E0AB
:1019C00080818F738C93CF91DF910895DF93CF93B4
:1019D00000D0CDB7DEB79A83898389819A819093AD
:1019E000BD008093BC000F900F90CF91DF910895C0
:1019F000EF92FF920F931F93DF93CF9300D000D00D
:101A0000CDB7DEB79C838B831A821982ABE2B0E03C
:101A1000EBE2F0E08081282F2D7FEB81FC8180813B
:101A2000882F90E0880F991F822B8C93AAE2B0E058
:101A3000EAE2F0E08081282F2F77EB81FC81818121
:101A4000882F90E09695982F882797958795822BD9
:101A50008C93AAE2B0E0EAE2F0E08081282F2F77B1
:101A6000EB81FC818281882F90E0002496958795F8
:101A70000794969587950794982F802D822B8C93A9
:101A8000AAE2B0E0EAE2F0E08081282F2F7DEB812E
:101A9000FC818381882F90E0880F991F8295929511
:101AA000907F9827807F9827822B8C93AAE2B0E0C2
:101AB000EAE2F0E08081282F2F7EEB81FC81848197
:101AC000882F90E082959295907F9827807F982725
:101AD000822B8C93AAE2B0E0EAE2F0E08081282F2A
:101AE000277FEB81FC818581882F90E0880F991FEB
:101AF000880F991F880F991F822B8C93AAE2B0E060
:101B0000EAE2F0E08081282F2B7FEB81FC81868147
:101B100086958695882F90E0880F991F880F991FCA
:101B2000822B8C93A0E4B0E0E0E4F0E08081282FE9
:101B3000297FEB81FC818681882F90E00024969597
:101B400087950794969587950794982F802D95955E
:101B5000879595958795959587959595879595956D
:101B60008795822B8C93A0E4B0E0E0E4F0E08081E4
:101B7000282F2F77EB81FC818781882F90E0969525
:101B8000982F882797958795822B8C93A0E4B0E0B7
:101B9000E0E4F0E08081282F2F7BEB81FC818085C1
:101BA000882F90E0002496958795079496958795C1
:101BB0000794982F802D822B8C93A0E4B0E0E0E472
:101BC000F0E08081282F2F7CEB81FC818185882F9C
:101BD00090E082959295907F9827807F9827822B1E
:101BE0008C93A0E4B0E0E0E4F0E08081282F277F30
:101BF000EB81FC818285882F90E0880F991F880FE8
:101C0000991F880F991F822B8C93A0E4B0E0E0E429
:101C1000F0E08081982F9E7FEB81FC818385892B6A
:101C20008C93EB81FC818081882F90E00196AA271C
:101C300097FDA095BA2F20E032E14AE750E0BC01C1
:101C4000CD010E94A32A7B018C01EB81FC8184855C
:101C50009585A685B785880F991FAA1FBB1F880F7A
:101C6000991FAA1FBB1F880F991FAA1FBB1F880F90
:101C7000991FAA1FBB1F9C01AD01C801B7010E949B
:101C8000D52ADA01C90101979A838983E0E4F0E05B
:101C900089819A81892F99278083E9E2F0E08981FF
:101CA00080830F900F900F900F90CF91DF911F9135
:101CB0000F91FF90EF900895DF93CF930F92CDB7E0
:101CC000DEB78983EBE2F0E08081882F90E08072BC
:101CD00090700097B9F3ECE2F0E0898180830F9077
:101CE000CF91DF910895DF93CF93CDB7DEB7EBE2CD
:101CF000F0E080818823DCF7ECE2F0E08081CF9196
:101D0000DF910895DF93CF9300D00F92CDB7DEB768
:101D10009B838A8319820EC08981282F30E08A81B3
:101D20009B81FC01E20FF31F80810E945C0E898180
:101D30008F5F89838981282F30E08A819B81FC0114
:101D4000E20FF31F8081882339F70F900F900F90D7
:101D5000CF91DF9108950F931F93DF93CF9300D01E
:101D600000D0CDB7DEB79B838A836C8319828981CB
:101D7000282F30E08A819B818C01020F131F0E9463
:101D8000730EF80180830FC089818F5F89838981F9
:101D9000282F30E08A819B818C01020F131F0E9443
:101DA000730EF80180838981282F30E08A819B811E
:101DB000FC01E20FF31F8081853451F08981282FC7
:101DC00030E08C81882F90E0019728173907E4F2E2
:101DD0000F900F900F900F90CF91DF911F910F9167
:101DE0000895DF93CF93CDB7DEB782E064E041E0A2
:101DF0000E94A30582E065E041E00E94A30581E026
:101E000063E041E00E94A305CF91DF910895DF9345
:101E1000CF9300D0CDB7DEB789836A8389818823C9
:101E200059F482E064E041E00E948E0682E065E0C1
:101E300040E00E948E060DC08981813051F482E01D
:101E400065E041E00E948E0682E064E040E00E948E
:101E50008E06CE0102960E94E90A0F900F90CF9154
:101E6000DF910895DF93CF93CDB7DEB781E063E0D4
:101E700040E00E948E06CF91DF910895DF93CF93CB
:101E8000CDB7DEB72E970FB6F894DEBF0FBECDBF2D
:101E900080E060E041E00E94A30580E061E041E075
:101EA0000E94A30580E090E0A0EAB1E48B879C87C4
:101EB000AD87BE876B857C858D859E8520E030E073
:101EC0004AEF54E40E941F02DC01CB018F83988704
:101ED000A987BA876F81788589859A8520E030E067
:101EE00040E85FE30E94790388232CF481E090E0CE
:101EF0009E838D833FC06F81788589859A8520E098
:101F00003FEF4FE757E40E94190318164CF56B8515
:101F10007C858D859E8520E030E040E251E40E9482
:101F20001F02DC01CB01BC01CD010E944900DC0194
:101F3000CB019E838D830FC088EC90E09C838B83C4
:101F40008B819C810197F1F79C838B838D819E818E
:101F500001979E838D838D819E81009769F714C0C0
:101F60006F81788589859A850E944900DC01CB01C3
:101F70009E838D838D819E819A83898389819A81B5
:101F80000197F1F79A83898380E064E041E00E9441
:101F9000A30580E065E041E00E94A30580E066E0E3
:101FA00041E00E94A30580E067E041E00E94A305B4
:101FB00083E30E94F00F82E30E94F00F88E20E9408
:101FC000F00F8CE00E94F00F81E00E94F00F2E963F
:101FD0000FB6F894DEBF0FBECDBFCF91DF9108954D
:101FE0000F931F93DF93CF93CDB7DEB7C356D04087
:101FF0000FB6F894DEBF0FBECDBFFE01ED59FF4F07
:10200000808380E060E040E00E948E06FE01E15A9D
:10201000FF4F80E090E0A0E8BFE380839183A2833C
:10202000B3838E01055A1F4FFE01E15AFF4F6081B5
:1020300071818281938120E030E04AEF54E40E9474
:102040001F02DC01CB01F80180839183A283B3835B
:10205000FE01E55AFF4F608171818281938120E00A
:1020600030E040E85FE30E947903882344F4FE01F6
:10207000E75AFF4F81E090E09183808364C0FE01C6
:10208000E55AFF4F608171818281938120E03FEFAB
:102090004FE757E40E94190318160CF043C0FE01E5
:1020A000E15AFF4F608171818281938120E030E0AD
:1020B00040E251E40E941F02DC01CB018E01075A6D
:1020C0001F4FBC01CD010E944900DC01CB01F8018A
:1020D000918380831FC0FE01E95AFF4F88EC90E096
:1020E00091838083FE01E95AFF4F8081918101979E
:1020F000F1F7FE01E95AFF4F91838083DE01A75A71
:10210000BF4FFE01E75AFF4F8081918101971196E1
:102110009C938E93FE01E75AFF4F80819181009737
:10212000D1F627C08E01075A1F4FFE01E55AFF4F17
:1021300060817181828193810E944900DC01CB0121
:10214000F80191838083DE01AB5ABF4FFE01E75A4D
:10215000FF4F808191818D939C93FE01EB5AFF4F3D
:10216000808191810197F1F7FE01EB5AFF4F918336
:10217000808380E061E041E00E948E06FE01EF5A1C
:10218000FF4F80E090E0A0E8BFE380839183A283CB
:10219000B3838E01035B1F4FFE01EF5AFF4F608137
:1021A00071818281938120E030E04AEF54E40E9403
:1021B0001F02DC01CB01F80180839183A283B383EA
:1021C000FE01E35BFF4F608171818281938120E09A
:1021D00030E040E85FE30E947903882344F4FE0185
:1021E000E55BFF4F81E090E09183808364C0FE0156
:1021F000E35BFF4F608171818281938120E03FEF3B
:102200004FE757E40E94190318160CF043C0FE0173
:10221000EF5AFF4F608171818281938120E030E02D
:1022200040E251E40E941F02DC01CB018E01055BFC
:102230001F4FBC01CD010E944900DC01CB01F80118
:10224000918380831FC0FE01E75BFF4F88EC90E025
:1022500091838083FE01E75BFF4F8081918101972D
:10226000F1F7FE01E75BFF4F91838083DE01A55B01
:10227000BF4FFE01E55BFF4F808191810197119671
:102280009C938E93FE01E55BFF4F808191810097C7
:10229000D1F627C08E01055B1F4FFE01E35BFF4FA8
:1022A00060817181828193810E944900DC01CB01B0
:1022B000F80191838083DE01A95BBF4FFE01E55BDE
:1022C000FF4F808191818D939C93FE01E95BFF4FCD
:1022D000808191810197F1F7FE01E95BFF4F9183C6
:1022E0008083FE01ED59FF4F8081882F90E080713F
:1022F00090709595879595958795959587959595E2
:102300008795982F80E064E0492F0E948E06FE0199
:10231000ED59FF4F8081882F90E0807290709595E5
:102320008795959587959595879595958795959595
:102330008795982F80E065E0492F0E948E06FE0168
:10234000ED59FF4F8081882F90E080749070082EA7
:10235000892F000C881F990B000C881F991F982F3C
:1023600080E066E0492F0E948E06FE01ED59FF4F86
:102370008081982F991F9927991F80E067E0492F46
:102380000E948E06FE01ED5BFF4F80E090E0A0E82A
:10239000BFE380839183A283B3838E01015C1F4FCF
:1023A000FE01ED5BFF4F608171818281938120E0AE
:1023B00030E04AEF54E40E941F02DC01CB01F80137
:1023C00080839183A283B383FE01FF966081718134
:1023D0008281938120E030E040E85FE30E9479034E
:1023E00088232CF481E090E09EAF8DAF46C0FE01C3
:1023F000FF96608171818281938120E03FEF4FE7FA
:1024000057E40E941903181664F5FE01ED5BFF4FB7
:10241000608171818281938120E030E040E251E46B
:102420000E941F02DC01CB01BC01CD010E944900CA
:10243000DC01CB019EAF8DAF0FC088EC90E09CAF6C
:102440008BAF8BAD9CAD0197F1F79CAF8BAF8DAD92
:102450009EAD01979EAF8DAF8DAD9EAD009769F794
:1024600016C0FE01FF9660817181828193810E9476
:102470004900DC01CB019EAF8DAF8DAD9EAD9AAF13
:1024800089AF89AD9AAD0197F1F79AAF89AF80E036
:1024900061E040E00E948E0680E090E0A0E8BFE3AB
:1024A0008DAB9EABAFABB8AF6DA97EA98FA998AD30
:1024B00020E030E04AEF54E40E941F02DC01CB012F
:1024C00089AB9AABABABBCAB69A97AA98BA99CA928
:1024D00020E030E040E85FE30E94790388232CF499
:1024E00081E090E098AB8FA73FC069A97AA98BA93A
:1024F0009CA920E03FEF4FE757E40E94190318160C
:102500004CF56DA97EA98FA998AD20E030E040E29E
:1025100051E40E941F02DC01CB01BC01CD010E94ED
:102520004900DC01CB0198AB8FA70FC088EC90E08D
:102530009EA78DA78DA59EA50197F1F79EA78DA7B4
:102540008FA598A9019798AB8FA78FA598A90097F9
:1025500069F714C069A97AA98BA99CA90E944900AE
:10256000DC01CB0198AB8FA78FA598A99CA78BA75F
:102570008BA59CA50197F1F79CA78BA780E061E054
:1025800041E00E948E0680E090E0A0E8BFE38FA3C8
:1025900098A7A9A7BAA76FA178A589A59AA520E0B1
:1025A00030E04AEF54E40E941F02DC01CB018BA310
:1025B0009CA3ADA3BEA36BA17CA18DA19EA120E095
:1025C00030E040E85FE30E94790388232CF481E047
:1025D00090E09AA389A33FC06BA17CA18DA19EA18D
:1025E00020E03FEF4FE757E40E94190318164CF51F
:1025F0006FA178A589A59AA520E030E040E251E4DA
:102600000E941F02DC01CB01BC01CD010E944900E8
:10261000DC01CB019AA389A30FC088EC90E098A3BA
:102620008F8F8F8D98A10197F1F798A38F8F89A134
:102630009AA101979AA389A389A19AA1009769F702
:1026400014C06BA17CA18DA19EA10E944900DC0158
:10265000CB019AA389A389A19AA19E8F8D8F8D8D7D
:102660009E8D0197F1F79E8F8D8FFE01ED59FF4FE3
:102670008081982F917080E064E0492F0E948E063F
:10268000FE01ED59FF4F8081882F90E0827090709D
:1026900095958795982F80E065E0492F0E948E06DA
:1026A000FE01ED59FF4F8081882F90E0847090707B
:1026B0009595879595958795982F80E066E0492FA9
:1026C0000E948E06FE01ED59FF4F8081882F90E019
:1026D0008870907095958795959587959595879530
:1026E000982F80E067E0492F0E948E0680E090E0FE
:1026F000A0E8BFE3898F9A8FAB8FBC8F698D7A8DED
:102700008B8D9C8D20E030E04AEF54E40E941F0244
:10271000DC01CB018D8B9E8BAF8BB88F6D897E8951
:102720008F89988D20E030E040E85FE30E947903D4
:1027300088232CF481E090E09C8B8B8B3FC06D89CB
:102740007E898F89988D20E03FEF4FE757E40E9404
:10275000190318164CF5698D7A8D8B8D9C8D20E0B0
:1027600030E040E251E40E941F02DC01CB01BC01D9
:10277000CD010E944900DC01CB019C8B8B8B0FC0EB
:1027800088EC90E09A8B898B89899A890197F1F777
:102790009A8B898B8B899C8901979C8B8B8B8B89DE
:1027A0009C89009769F714C06D897E898F89988DFF
:1027B0000E944900DC01CB019C8B8B8B8B899C890F
:1027C000988B8F878F8598890197F1F7988B8F87E2
:1027D00080E061E040E00E948E0680E090E0A0E8AA
:1027E000BFE38B879C87AD87BE876B857C858D8596
:1027F0009E8520E030E04AEF54E40E941F02DC0195
:10280000CB018F839887A987BA876F81788589855F
:102810009A8520E030E040E85FE30E947903882356
:102820002CF481E090E09E838D833FC06F8178859A
:1028300089859A8520E03FEF4FE757E40E9419030E
:1028400018164CF56B857C858D859E8520E030E0E3
:1028500040E251E40E941F02DC01CB01BC01CD012A
:102860000E944900DC01CB019E838D830FC088EC60
:1028700090E09C838B838B819C810197F1F79C83F3
:102880008B838D819E8101979E838D838D819E8117
:10289000009769F714C06F81788589859A850E94B1
:1028A0004900DC01CB019E838D838D819E819A83BB
:1028B000898389819A810197F1F79A838983CD5918
:1028C000DF4F0FB6F894DEBF0FBECDBFCF91DF91C3
:1028D0001F910F9108950F931F93DF93CF93CDB75F
:1028E000DEB7C356D0400FB6F894DEBF0FBECDBFE3
:1028F000FE01ED59FF4F808380E060E041E00E94DF
:102900008E06FE01E15AFF4F80E090E0A0E8BFE3B1
:1029100080839183A283B3838E01055A1F4FFE01EA
:10292000E15AFF4F608171818281938120E030E024
:102930004AEF54E40E941F02DC01CB01F8018083BE
:102940009183A283B383FE01E55AFF4F60817181B9
:102950008281938120E030E040E85FE30E947903C8
:10296000882344F4FE01E75AFF4F81E090E0918311
:10297000808364C0FE01E55AFF4F608171818281CE
:10298000938120E03FEF4FE757E40E9419031816A8
:102990000CF043C0FE01E15AFF4F608171818281DA
:1029A000938120E030E040E251E40E941F02DC010C
:1029B000CB018E01075A1F4FBC01CD010E94490077
:1029C000DC01CB01F801918380831FC0FE01E95A2D
:1029D000FF4F88EC90E091838083FE01E95AFF4F1E
:1029E000808191810197F1F7FE01E95AFF4F9183B0
:1029F0008083DE01A75ABF4FFE01E75AFF4F808157
:102A00009181019711969C938E93FE01E75AFF4F97
:102A1000808191810097D1F627C08E01075A1F4F00
:102A2000FE01E55AFF4F60817181828193810E948E
:102A30004900DC01CB01F80191838083DE01AB5AB0
:102A4000BF4FFE01E75AFF4F808191818D939C9388
:102A5000FE01EB5AFF4F808191810197F1F7FE0152
:102A6000EB5AFF4F9183808380E061E041E00E9458
:102A70008E06FE01EF5AFF4F80E090E0A0E8BFE332
:102A800080839183A283B3838E01035B1F4FFE017A
:102A9000EF5AFF4F608171818281938120E030E0A5
:102AA0004AEF54E40E941F02DC01CB01F80180834D
:102AB0009183A283B383FE01E35BFF4F6081718149
:102AC0008281938120E030E040E85FE30E94790357
:102AD000882344F4FE01E55BFF4F81E090E09183A1
:102AE000808364C0FE01E35BFF4F6081718182815E
:102AF000938120E03FEF4FE757E40E941903181637
:102B00000CF043C0FE01EF5AFF4F6081718182815A
:102B1000938120E030E040E251E40E941F02DC019A
:102B2000CB018E01055B1F4FBC01CD010E94490006
:102B3000DC01CB01F801918380831FC0FE01E75BBC
:102B4000FF4F88EC90E091838083FE01E75BFF4FAD
:102B5000808191810197F1F7FE01E75BFF4F91833F
:102B60008083DE01A55BBF4FFE01E55BFF4F8081E7
:102B70009181019711969C938E93FE01E55BFF4F27
:102B8000808191810097D1F627C08E01055B1F4F90
:102B9000FE01E35BFF4F60817181828193810E941E
:102BA0004900DC01CB01F80191838083DE01A95B40
:102BB000BF4FFE01E55BFF4F808191818D939C9318
:102BC000FE01E95BFF4F808191810197F1F7FE01E2
:102BD000E95BFF4F91838083FE01ED59FF4F8081B8
:102BE000882F90E080719070959587959595879541
:102BF0009595879595958795982F80E064E0492F66
:102C00000E948E06FE01ED59FF4F8081882F90E0D3
:102C100080729070959587959595879595958795F0
:102C20009595879595958795982F80E065E0492F34
:102C30000E948E06FE01ED59FF4F8081882F90E0A3
:102C400080749070082E892F000C881F990B000C3F
:102C5000881F991F982F80E066E0492F0E948E06FA
:102C6000FE01ED59FF4F8081982F991F9927991FD9
:102C700080E067E0492F0E948E06FE01ED5BFF4F6A
:102C800080E090E0A0E8BFE380839183A283B383D8
:102C90008E01015C1F4FFE01ED5BFF4F6081718172
:102CA0008281938120E030E04AEF54E40E941F02C9
:102CB000DC01CB01F80180839183A283B383FE0101
:102CC000FF96608171818281938120E030E040E84D
:102CD0005FE30E94790388232CF481E090E09EAFAB
:102CE0008DAF46C0FE01FF96608171818281938124
:102CF00020E03FEF4FE757E40E941903181664F5F0
:102D0000FE01ED5BFF4F608171818281938120E044
:102D100030E040E251E40E941F02DC01CB01BC0123
:102D2000CD010E944900DC01CB019EAF8DAF0FC0E9
:102D300088EC90E09CAF8BAF8BAD9CAD0197F1F729
:102D40009CAF8BAF8DAD9EAD01979EAF8DAF8DAD1E
:102D50009EAD009769F716C0FE01FF9660817181F4
:102D6000828193810E944900DC01CB019EAF8DAF2F
:102D70008DAD9EAD9AAF89AF89AD9AAD0197F1F750
:102D80009AAF89AF80E061E040E00E948E0680E06B
:102D900090E0A0E8BFE38DAB9EABAFABB8AF6DA941
:102DA0007EA98FA998AD20E030E04AEF54E40E945C
:102DB0001F02DC01CB0189AB9AABABABBCAB69A901
:102DC0007AA98BA99CA920E030E040E85FE30E944B
:102DD000790388232CF481E090E098AB8FA73FC063
:102DE00069A97AA98BA99CA920E03FEF4FE757E496
:102DF0000E94190318164CF56DA97EA98FA998ADEC
:102E000020E030E040E251E40E941F02DC01CB01EF
:102E1000BC01CD010E944900DC01CB0198AB8FA71A
:102E20000FC088EC90E09EA78DA78DA59EA5019769
:102E3000F1F79EA78DA78FA598A9019798AB8FA7AB
:102E40008FA598A9009769F714C069A97AA98BA9D9
:102E50009CA90E944900DC01CB0198AB8FA78FA5EC
:102E600098A99CA78BA78BA59CA50197F1F79CA778
:102E70008BA780E061E041E00E948E0680E090E058
:102E8000A0E8BFE38FA398A7A9A7BAA76FA178A5C9
:102E900089A59AA520E030E04AEF54E40E941F0281
:102EA000DC01CB018BA39CA3ADA3BEA36BA17CA132
:102EB0008DA19EA120E030E040E85FE30E9479030D
:102EC00088232CF481E090E09AA389A33FC06BA1F2
:102ED0007CA18DA19EA120E03FEF4FE757E40E9427
:102EE000190318164CF56FA178A589A59AA520E0BD
:102EF00030E040E251E40E941F02DC01CB01BC0142
:102F0000CD010E944900DC01CB019AA389A30FC027
:102F100088EC90E098A38F8F8F8D98A10197F1F79F
:102F200098A38F8F89A19AA101979AA389A389A1B8
:102F30009AA1009769F714C06BA17CA18DA19EA1F5
:102F40000E944900DC01CB019AA389A389A19AA11F
:102F50009E8F8D8F8D8D9E8D0197F1F79E8F8D8F1A
:102F6000FE01ED59FF4F8081982F917080E064E061
:102F7000492F0E948E06FE01ED59FF4F8081882F58
:102F800090E08270907095958795982F80E065E02D
:102F9000492F0E948E06FE01ED59FF4F8081882F38
:102FA00090E0847090709595879595958795982F6A
:102FB00080E066E0492F0E948E06FE01ED59FF4F2A
:102FC0008081882F90E08870907095958795959571
:102FD000879595958795982F80E067E0492F0E9407
:102FE0008E0680E090E0A0E8BFE3898F9A8FAB8FD8
:102FF000BC8F698D7A8D8B8D9C8D20E030E04AEFFF
:1030000054E40E941F02DC01CB018D8B9E8BAF8BA1
:10301000B88F6D897E898F89988D20E030E040E8F7
:103020005FE30E94790388232CF481E090E09C8B7D
:103030008B8B3FC06D897E898F89988D20E03FEF13
:103040004FE757E40E94190318164CF5698D7A8DE5
:103050008B8D9C8D20E030E040E251E40E941F0205
:10306000DC01CB01BC01CD010E944900DC01CB0198
:103070009C8B8B8B0FC088EC90E09A8B898B898915
:103080009A890197F1F79A8B898B8B899C89019793
:103090009C8B8B8B8B899C89009769F714C06D89F9
:1030A0007E898F89988D0E944900DC01CB019C8B21
:1030B0008B8B8B899C89988B8F878F8598890197BB
:1030C000F1F7988B8F8780E061E040E00E948E06E8
:1030D00080E090E0A0E8BFE38B879C87AD87BE8748
:1030E0006B857C858D859E8520E030E04AEF54E439
:1030F0000E941F02DC01CB018F839887A987BA87C2
:103100006F81788589859A8520E030E040E85FE32B
:103110000E94790388232CF481E090E09E838D83C4
:103120003FC06F81788589859A8520E03FEF4FE722
:1031300057E40E94190318164CF56B857C858D8524
:103140009E8520E030E040E251E40E941F02DC0155
:10315000CB01BC01CD010E944900DC01CB019E8363
:103160008D830FC088EC90E09C838B838B819C8146
:103170000197F1F79C838B838D819E8101979E83BC
:103180008D838D819E81009769F714C06F8178854A
:1031900089859A850E944900DC01CB019E838D833D
:1031A0008D819E819A83898389819A810197F1F724
:1031B0009A838983CD59DF4F0FB6F894DEBF0FBED7
:1031C000CDBFCF91DF911F910F910895DF93CF93E2
:1031D00000D00F92CDB7DEB79B838A8319820EC0D1
:1031E0008981282F30E08A819B81FC01E20FF31F47
:1031F00080810E946B1489818F5F89838981282F48
:1032000030E08A819B81FC01E20FF31F80818823DB
:1032100039F70F900F900F90CF91DF910895DF93C2
:10322000CF9300D000D00F92CDB7DEB78A836B83E7
:103230008A81282F30E03D832C838C819D818130D1
:103240009105C1F02C813D81223031052CF48C8117
:103250009D81009761F019C02C813D81223031059C
:1032600069F08C819D818330910561F00EC08B8166
:1032700089830BC08B81805C898307C08B81805FD1
:10328000898303C08B81805B8983898180680E94E8
:10329000F00F0F900F900F900F900F90CF91DF9144
:1032A0000895DF93CF9300D000D0CDB7DEB78983E8
:1032B0006A835C834B8389816A810E940F198B81A9
:1032C0009C810E94E6180F900F900F900F90CF9165
:1032D000DF910895DF93CF9300D00F92CDB7DEB783
:1032E00089836A834B8389816A810E940F198B814C
:1032F0000E946B140F900F900F90CF91DF91089563
:10330000DF93CF93CDB7DEB762970FB6F894DEBFE9
:103310000FBECDBF9A8B898B89899A899E012F5FB9
:103320003F4FB9014AE050E00E94422BCE01019686
:103330000E94E61862960FB6F894DEBF0FBECDBFAE
:10334000CF91DF910895DF93CF93CDB7DEB781E0C2
:103350000E94F00FCF91DF910895DF93CF93CDB707
:10336000DEB782E060E041E00E94A30582E061E018
:1033700041E00E94A30582E062E041E00E94A305D3
:1033800082E063E041E00E94A30582E066E041E064
:103390000E94A30582E067E041E00E94A30582E06D
:1033A00066E040E00E948E0682E067E040E00E9416
:1033B0008E06CF91DF9108950F931F93DF93CF93E4
:1033C000CDB7DEB7C150D1400FB6F894DEBF0FBE07
:1033D000CDBFFE01E150FF4F8083FE01E050FF4F63
:1033E0006083FE01EF5FFE4F4083FE01E250FF4F1E
:1033F0001082FE01E350FF4F108282E066E041E060
:103400000E948E0682E067E041E00E948E06FE0187
:10341000E150FF4F8081813019F5FE01E050FF4FF0
:103420009081FE01EF5FFE4F8081292F281B822FA4
:10343000FE01E350FF4F8083FE01E350FF4F808188
:103440008823A4F5DE01A350BF4FFE01E350FF4FD8
:10345000808181958C93FE01E150FF4F108226C040
:10346000FE01E050FF4F80818195982FFE01EF5FB4
:10347000FE4F8081E92FE81B8E2FFE01E350FF4FA6
:103480008083FE01E350FF4F8081882354F4DE01E6
:10349000A350BF4FFE01E350FF4F808181958C9375
:1034A00005C0FE01E150FF4F81E08083FE01E15045
:1034B000FF4F8081813009F01FC7FE01E250FF4FAE
:1034C000108208C782E060E041E00E948E0682E040
:1034D00061E040E00E948E0682E062E040E00E94EF
:1034E0008E0682E063E040E00E948E06FE01E75017
:1034F000FF4F80E090E0A8ECB1E480839183A28349
:10350000B3838E010B501F4FFE01E750FF4F6081C8
:1035100071818281938120E030E04AEF54E40E947F
:103520001F02DC01CB01F80180839183A283B38366
:10353000FE01EB50FF4F608171818281938120E019
:1035400030E040E85FE30E947903882344F4FE0101
:10355000ED50FF4F81E090E09183808364C0FE01D5
:10356000EB50FF4F608171818281938120E03FEFBA
:103570004FE757E40E94190318160CF043C0FE01F0
:10358000E750FF4F608171818281938120E030E0BC
:1035900040E251E40E941F02DC01CB018E010D507C
:1035A0001F4FBC01CD010E944900DC01CB01F80195
:1035B000918380831FC0FE01EF50FF4F88EC90E0A5
:1035C00091838083FE01EF50FF4F808191810197AD
:1035D000F1F7FE01EF50FF4F91838083DE01AD5084
:1035E000BF4FFE01ED50FF4F8081918101971196F1
:1035F0009C938E93FE01ED50FF4F80819181009747
:10360000D1F627C08E010D501F4FFE01EB50FF4F2A
:1036100060817181828193810E944900DC01CB012C
:10362000F80191838083DE01A151BF4FFE01ED506F
:10363000FF4F808191818D939C93FE01E151FF4F5B
:10364000808191810197F1F7FE01E151FF4F918354
:10365000808382E060E041E00E948E0682E061E0CB
:1036600040E00E948E0682E062E041E00E948E0609
:1036700082E063E040E00E948E06FE01E551FF4FCC
:1036800080E090E0A8ECB1E480839183A283B383CF
:103690008E0109511F4FFE01E551FF4F608171817D
:1036A0008281938120E030E04AEF54E40E941F02BF
:1036B000DC01CB01F80180839183A283B383FE01F7
:1036C000E951FF4F608171818281938120E030E078
:1036D00040E85FE30E947903882344F4FE01EB5144
:1036E000FF4F81E090E09183808364C0FE01E95147
:1036F000FF4F608171818281938120E03FEF4FE72E
:1037000057E40E94190318160CF043C0FE01E5515E
:10371000FF4F608171818281938120E030E040E23F
:1037200051E40E941F02DC01CB018E010B511F4F9F
:10373000BC01CD010E944900DC01CB01F80191835D
:1037400080831FC0FE01ED51FF4F88EC90E0918314
:103750008083FE01ED51FF4F808191810197F1F748
:10376000FE01ED51FF4F91838083DE01AB51BF4FCE
:10377000FE01EB51FF4F80819181019711969C933F
:103780008E93FE01EB51FF4F808191810097D1F61E
:1037900027C08E010B511F4FFE01E951FF4F608181
:1037A0007181828193810E944900DC01CB01F80183
:1037B00091838083DE01AF51BF4FFE01EB51FF4F7C
:1037C000808191818D939C93FE01EF51FF4F808109
:1037D00091810197F1F7FE01EF51FF4F91838083B3
:1037E00082E060E040E00E948E0682E061E040E01E
:1037F0000E948E0682E062E041E00E948E0682E036
:1038000063E040E00E948E06FE01E352FF4F80E03D
:1038100090E0A8ECB1E480839183A283B3838E010E
:1038200007521F4FFE01E352FF4F60817181828179
:10383000938120E030E04AEF54E40E941F02DC0153
:10384000CB01F80180839183A283B383FE01E75209
:10385000FF4F608171818281938120E030E040E8F8
:103860005FE30E947903882344F4FE01E952FF4F8D
:1038700081E090E09183808364C0FE01E752FF4FB6
:10388000608171818281938120E03FEF4FE757E4AF
:103890000E94190318160CF043C0FE01E352FF4FBB
:1038A000608171818281938120E030E040E251E4C7
:1038B0000E941F02DC01CB018E0109521F4FBC0187
:1038C000CD010E944900DC01CB01F8019183808386
:1038D0001FC0FE01EB52FF4F88EC90E09183808384
:1038E000FE01EB52FF4F808191810197F1F7FE01BC
:1038F000EB52FF4F91838083DE01A952BF4FFE013F
:10390000E952FF4F80819181019711969C938E938C
:10391000FE01E952FF4F808191810097D1F627C0C7
:103920008E0109521F4FFE01E752FF4F60817181E6
:10393000828193810E944900DC01CB01F8019183CF
:103940008083DE01AD52BF4FFE01E952FF4F8081FF
:1039500091818D939C93FE01ED52FF4F8081918167
:103960000197F1F7FE01ED52FF4F9183808382E0D2
:1039700060E040E00E948E0682E061E041E00E944B
:103980008E0682E062E041E00E948E0682E063E003
:1039900040E00E948E06FE01E153FF4F80E090E080
:1039A000A8ECB1E480839183A283B3838E01055395
:1039B0001F4FFE01E153FF4F60817181828193812E
:1039C00020E030E04AEF54E40E941F02DC01CB010A
:1039D000F80180839183A283B383FE01E553FF4FF7
:1039E000608171818281938120E030E040E85FE373
:1039F0000E947903882344F4FE01E753FF4F81E0DE
:103A000090E09183808364C0FE01E553FF4F6081A5
:103A100071818281938120E03FEF4FE757E40E945C
:103A2000190318160CF043C0FE01E153FF4F6081EB
:103A300071818281938120E030E040E251E40E9474
:103A40001F02DC01CB018E0107531F4FBC01CD01CA
:103A50000E944900DC01CB01F801918380831FC0E3
:103A6000FE01E953FF4F88EC90E091838083FE01D3
:103A7000E953FF4F808191810197F1F7FE01E953EE
:103A8000FF4F91838083DE01A753BF4FFE01E753B1
:103A9000FF4F80819181019711969C938E93FE0137
:103AA000E753FF4F808191810097D1F627C08E01A7
:103AB00007531F4FFE01E553FF4F608171818281E3
:103AC00093810E944900DC01CB01F801918380833E
:103AD000DE01AB53BF4FFE01E753FF4F8081918161
:103AE0008D939C93FE01EB53FF4F80819181019751
:103AF000F1F7FE01EB53FF4F9183808382E060E09A
:103B000040E00E948E0682E061E041E00E948E0665
:103B100082E062E040E00E948E0682E063E040E0E6
:103B20000E948E06FE01EF53FF4F80E090E0A8EC6C
:103B3000B1E480839183A283B3838E0103541F4F2A
:103B4000FE01EF53FF4F608171818281938120E0FC
:103B500030E04AEF54E40E941F02DC01CB01F8017F
:103B600080839183A283B383FE01E354FF4F60817E
:103B700071818281938120E030E040E85FE30E9420
:103B80007903882344F4FE01E554FF4F81E090E07F
:103B90009183808364C0FE01E354FF4F6081718193
:103BA0008281938120E03FEF4FE757E40E941903A1
:103BB00018160CF043C0FE01EF53FF4F6081718176
:103BC0008281938120E030E040E251E40E941F02B4
:103BD000DC01CB018E0105541F4FBC01CD010E94B9
:103BE0004900DC01CB01F801918380831FC0FE01F5
:103BF000E754FF4F88EC90E091838083FE01E75407
:103C0000FF4F808191810197F1F7FE01E754FF4F4B
:103C100091838083DE01A554BF4FFE01E554FF4F21
:103C200080819181019711969C938E93FE01E554BA
:103C3000FF4F808191810097D1F627C08E010554F6
:103C40001F4FFE01E354FF4F608171818281938198
:103C50000E944900DC01CB01F80191838083DE01E1
:103C6000A954BF4FFE01E554FF4F808191818D9390
:103C70009C93FE01E954FF4F808191810197F1F7F8
:103C8000FE01E954FF4F9183808382E060E040E0D1
:103C90000E948E0682E061E041E00E948E0682E092
:103CA00062E040E00E948E0682E063E041E00E9414
:103CB0008E06FE01ED54FF4F80E090E0A8ECB1E4E9
:103CC00080839183A283B3838E0101551F4FFE0130
:103CD000ED54FF4F608171818281938120E030E05B
:103CE0004AEF54E40E941F02DC01CB01F8018083FB
:103CF0009183A283B383FE01E155FF4F60817181FF
:103D00008281938120E030E040E85FE30E94790304
:103D1000882344F4FE01E355FF4F81E090E0918356
:103D2000808364C0FE01E155FF4F60817181828113
:103D3000938120E03FEF4FE757E40E9419031816E4
:103D40000CF043C0FE01ED54FF4F60817181828110
:103D5000938120E030E040E251E40E941F02DC0148
:103D6000CB018E0103551F4FBC01CD010E944900BC
:103D7000DC01CB01F801918380831FC0FE01E55572
:103D8000FF4F88EC90E091838083FE01E555FF4F63
:103D9000808191810197F1F7FE01E555FF4F9183F5
:103DA0008083DE01A355BF4FFE01E355FF4F8081A5
:103DB0009181019711969C938E93FE01E355FF4FDD
:103DC000808191810097D1F627C08E0103551F4F46
:103DD000FE01E155FF4F60817181828193810E94D4
:103DE0004900DC01CB01F80191838083DE01A755F6
:103DF000BF4FFE01E355FF4F808191818D939C93CE
:103E0000FE01E755FF4F808191810197F1F7FE0197
:103E1000E755FF4F9183808382E060E040E00E949D
:103E20008E0682E061E040E00E948E0682E062E061
:103E300040E00E948E0682E063E041E00E948E0630
:103E4000FE01EB55FF4F80E090E0A8ECB1E48083E9
:103E50009183A283B3838E010F551F4FFE01EB5553
:103E6000FF4F608171818281938120E030E04AEFD1
:103E700054E40E941F02DC01CB01F801808391838E
:103E8000A283B383FE01EF55FF4F60817181828170
:103E9000938120E030E040E85FE30E9479038823CB
:103EA00044F4FE01E156FF4F81E090E0918380836E
:103EB00064C0FE01EF55FF4F608171818281938163
:103EC00020E03FEF4FE757E40E94190318160CF06B
:103ED00043C0FE01EB55FF4F608171818281938168
:103EE00020E030E040E251E40E941F02DC01CB01FF
:103EF0008E0101561F4FBC01CD010E944900DC011B
:103F0000CB01F801918380831FC0FE01E356FF4F70
:103F100088EC90E091838083FE01E356FF4F80811F
:103F200091810197F1F7FE01E356FF4F9183808362
:103F3000DE01A156BF4FFE01E156FF4F8081918106
:103F4000019711969C938E93FE01E156FF4F80815D
:103F500091810097D1F627C08E0101561F4FFE01B7
:103F6000EF55FF4F60817181828193810E944900EA
:103F7000DC01CB01F80191838083DE01A556BF4FA0
:103F8000FE01E156FF4F808191818D939C93FE014C
:103F9000E556FF4F808191810197F1F7FE01E556CB
:103FA000FF4F9183808382E060E041E00E948E06B3
:103FB00082E061E040E00E948E0682E062E040E044
:103FC0000E948E0682E063E041E00E948E06FE01C0
:103FD000E956FF4F80E090E0A8ECB1E48083918344
:103FE000A283B3838E010D561F4FFE01E956FF4F8A
:103FF000608171818281938120E030E04AEF54E456
:104000000E941F02DC01CB01F80180839183A2830F
:10401000B383FE01ED56FF4F6081718182819381F0
:1040200020E030E040E85FE30E947903882344F415
:10403000FE01EF56FF4F81E090E09183808364C0E2
:10404000FE01ED56FF4F608171818281938120E0F6
:104050003FEF4FE757E40E94190318160CF043C0D6
:10406000FE01E956FF4F608171818281938120E0DA
:1040700030E040E251E40E941F02DC01CB018E01DE
:104080000F561F4FBC01CD010E944900DC01CB013E
:10409000F801918380831FC0FE01E157FF4F88EC38
:1040A00090E091838083FE01E157FF4F80819181F1
:1040B0000197F1F7FE01E157FF4F91838083DE0105
:1040C000AF56BF4FFE01EF56FF4F808191810197A0
:1040D00011969C938E93FE01EF56FF4F8081918144
:1040E0000097D1F627C08E010F561F4FFE01ED56E7
:1040F000FF4F60817181828193810E944900DC01C0
:10410000CB01F80191838083DE01A357BF4FFE01ED
:10411000EF56FF4F808191818D939C93FE01E35771
:10412000FF4F808191810197F1F7FE01E357FF4F27
:104130009183808382E060E041E00E948E0682E00D
:1041400061E040E00E948E0682E062E040E00E9472
:104150008E0682E063E040E00E948E06FE01E75793
:10416000FF4F80E090E0A8ECB1E480839183A283CC
:10417000B3838E010B571F4FFE01E757FF4F60813E
:1041800071818281938120E030E04AEF54E40E9403
:104190001F02DC01CB01F80180839183A283B383EA
:1041A000FE01EB57FF4F608171818281938120E096
:1041B00030E040E85FE30E947903882344F4FE0185
:1041C000ED57FF4F81E090E09183808364C0FE0152
:1041D000EB57FF4F608171818281938120E03FEF37
:1041E0004FE757E40E94190318160CF043C0FE0174
:1041F000E757FF4F608171818281938120E030E039
:1042000040E251E40E941F02DC01CB018E010D57F8
:104210001F4FBC01CD010E944900DC01CB01F80118
:10422000918380831FC0FE01EF57FF4F88EC90E021
:1042300091838083FE01EF57FF4F80819181019729
:10424000F1F7FE01EF57FF4F91838083DE01AD57F9
:10425000BF4FFE01ED57FF4F80819181019711966D
:104260009C938E93FE01ED57FF4F808191810097C3
:10427000D1F627C08E010D571F4FFE01EB57FF4FA0
:1042800060817181828193810E944900DC01CB01B0
:10429000F80191838083DE01A158BF4FFE01ED57E5
:1042A000FF4F808191818D939C93FE01E158FF4FD8
:1042B000808191810197F1F7FE01E158FF4F9183D1
:1042C0008083DE01A250BF4FFE01E250FF4F80818C
:1042D0008F5F8C93FE01E250FF4F8081282F30E0EA
:1042E000FE01E350FF4F8081992787FD90952817A5
:1042F00039070CF4E7C8ECC5FE01E250FF4F10820D
:10430000D6C582E060E041E00E948E0682E061E076
:1043100040E00E948E0682E062E040E00E948E064D
:1043200082E063E040E00E948E06FE01E558FF4F08
:1043300080E090E0A8ECB1E480839183A283B38312
:104340008E0109581F4FFE01E558FF4F60817181B2
:104350008281938120E030E04AEF54E40E941F0202
:10436000DC01CB01F80180839183A283B383FE013A
:10437000E958FF4F608171818281938120E030E0B4
:1043800040E85FE30E947903882344F4FE01EB5880
:10439000FF4F81E090E09183808364C0FE01E95883
:1043A000FF4F608171818281938120E03FEF4FE771
:1043B00057E40E94190318160CF043C0FE01E5589B
:1043C000FF4F608171818281938120E030E040E283
:1043D00051E40E941F02DC01CB018E010B581F4FDC
:1043E000BC01CD010E944900DC01CB01F8019183A1
:1043F00080831FC0FE01ED58FF4F88EC90E0918351
:104400008083FE01ED58FF4F808191810197F1F784
:10441000FE01ED58FF4F91838083DE01AB58BF4F03
:10442000FE01EB58FF4F80819181019711969C937B
:104430008E93FE01EB58FF4F808191810097D1F65A
:1044400027C08E010B581F4FFE01E958FF4F6081B6
:104450007181828193810E944900DC01CB01F801C6
:1044600091838083DE01AF58BF4FFE01EB58FF4FB1
:10447000808191818D939C93FE01EF58FF4F808145
:1044800091810197F1F7FE01EF58FF4F91838083EF
:1044900082E060E041E00E948E0682E061E040E060
:1044A0000E948E0682E062E040E00E948E0682E07A
:1044B00063E041E00E948E06FE01E359FF4F80E079
:1044C00090E0A8ECB1E480839183A283B3838E0152
:1044D00007591F4FFE01E359FF4F608171818281AF
:1044E000938120E030E04AEF54E40E941F02DC0197
:1044F000CB01F80180839183A283B383FE01E75946
:10450000FF4F608171818281938120E030E040E83B
:104510005FE30E947903882344F4FE01E959FF4FC9
:1045200081E090E09183808364C0FE01E759FF4FF2
:10453000608171818281938120E03FEF4FE757E4F2
:104540000E94190318160CF043C0FE01E359FF4FF7
:10455000608171818281938120E030E040E251E40A
:104560000E941F02DC01CB018E0109591F4FBC01C3
:10457000CD010E944900DC01CB01F80191838083C9
:104580001FC0FE01EB59FF4F88EC90E091838083C0
:10459000FE01EB59FF4F808191810197F1F7FE01F8
:1045A000EB59FF4F91838083DE01A959BF4FFE0174
:1045B000E959FF4F80819181019711969C938E93C9
:1045C000FE01E959FF4F808191810097D1F627C004
:1045D0008E0109591F4FFE01E759FF4F608171811C
:1045E000828193810E944900DC01CB01F801918313
:1045F0008083DE01AD59BF4FFE01E959FF4F808135
:1046000091818D939C93FE01ED59FF4F80819181A3
:104610000197F1F7FE01ED59FF4F9183808382E00E
:1046200060E040E00E948E0682E061E040E00E948F
:104630008E0682E062E040E00E948E0682E063E047
:1046400041E00E948E06FE01E15AFF4F80E090E0BB
:10465000A8ECB1E480839183A283B3838E01055AD1
:104660001F4FFE01E15AFF4F60817181828193816A
:1046700020E030E04AEF54E40E941F02DC01CB014D
:10468000F80180839183A283B383FE01E55AFF4F33
:10469000608171818281938120E030E040E85FE3B6
:1046A0000E947903882344F4FE01E75AFF4F81E01A
:1046B00090E09183808364C0FE01E55AFF4F6081E2
:1046C00071818281938120E03FEF4FE757E40E94A0
:1046D000190318160CF043C0FE01E15AFF4F608128
:1046E00071818281938120E030E040E251E40E94B8
:1046F0001F02DC01CB018E01075A1F4FBC01CD0107
:104700000E944900DC01CB01F801918380831FC026
:10471000FE01E95AFF4F88EC90E091838083FE010F
:10472000E95AFF4F808191810197F1F7FE01E95A23
:10473000FF4F91838083DE01A75ABF4FFE01E75AE6
:10474000FF4F80819181019711969C938E93FE017A
:10475000E75AFF4F808191810097D1F627C08E01E3
:10476000075A1F4FFE01E55AFF4F60817181828118
:1047700093810E944900DC01CB01F8019183808381
:10478000DE01AB5ABF4FFE01E75AFF4F8081918196
:104790008D939C93FE01EB5AFF4F8081918101978D
:1047A000F1F7FE01EB5AFF4F9183808382E060E0D6
:1047B00040E00E948E0682E061E041E00E948E06A9
:1047C00082E062E040E00E948E0682E063E041E029
:1047D0000E948E06FE01EF5AFF4F80E090E0A8ECA9
:1047E000B1E480839183A283B3838E01035B1F4F67
:1047F000FE01EF5AFF4F608171818281938120E039
:1048000030E04AEF54E40E941F02DC01CB01F801C2
:1048100080839183A283B383FE01E35BFF4F6081BA
:1048200071818281938120E030E040E85FE30E9463
:104830007903882344F4FE01E55BFF4F81E090E0BB
:104840009183808364C0FE01E35BFF4F60817181CF
:104850008281938120E03FEF4FE757E40E941903E4
:1048600018160CF043C0FE01EF5AFF4F60817181B2
:104870008281938120E030E040E251E40E941F02F7
:10488000DC01CB018E01055B1F4FBC01CD010E94F5
:104890004900DC01CB01F801918380831FC0FE0138
:1048A000E75BFF4F88EC90E091838083FE01E75B3C
:1048B000FF4F808191810197F1F7FE01E75BFF4F88
:1048C00091838083DE01A55BBF4FFE01E55BFF4F57
:1048D00080819181019711969C938E93FE01E55BF7
:1048E000FF4F808191810097D1F627C08E01055B33
:1048F0001F4FFE01E35BFF4F6081718182819381D5
:104900000E944900DC01CB01F80191838083DE0124
:10491000A95BBF4FFE01E55BFF4F808191818D93C5
:104920009C93FE01E95BFF4F808191810197F1F734
:10493000FE01E95BFF4F9183808382E060E040E00D
:104940000E948E0682E061E041E00E948E0682E0D5
:1049500062E040E00E948E0682E063E040E00E9458
:104960008E06FE01ED5BFF4F80E090E0A8ECB1E425
:1049700080839183A283B3838E01015C1F4FFE016C
:10498000ED5BFF4F608171818281938120E030E097
:104990004AEF54E40E941F02DC01CB01F80180833E
:1049A0009183A283B383FE01FF966081718182812E
:1049B000938120E030E040E85FE30E9479038823A0
:1049C0002CF481E090E09EAF8DAF46C0FE01FF96D3
:1049D000608171818281938120E03FEF4FE757E44E
:1049E0000E941903181664F5FE01ED5BFF4F60810C
:1049F00071818281938120E030E040E251E40E94A5
:104A00001F02DC01CB01BC01CD010E944900DC0189
:104A1000CB019EAF8DAF0FC088EC90E09CAF8BAF09
:104A20008BAD9CAD0197F1F79CAF8BAF8DAD9EAD7B
:104A300001979EAF8DAF8DAD9EAD009769F716C003
:104A4000FE01FF9660817181828193810E944900FD
:104A5000DC01CB019EAF8DAF8DAD9EAD9AAF89AF1E
:104A600089AD9AAD0197F1F79AAF89AF82E060E026
:104A700040E00E948E0682E061E041E00E948E06E6
:104A800082E062E041E00E948E0682E063E040E066
:104A90000E948E0680E090E0A8ECB1E48DAB9EAB66
:104AA000AFABB8AF6DA97EA98FA998AD20E030E07B
:104AB0004AEF54E40E941F02DC01CB0189AB9AABA0
:104AC000ABABBCAB69A97AA98BA99CA920E030E06B
:104AD00040E85FE30E94790388232CF481E090E0B2
:104AE00098AB8FA73FC069A97AA98BA99CA920E0A0
:104AF0003FEF4FE757E40E94190318164CF56DA9D4
:104B00007EA98FA998AD20E030E040E251E40E94F8
:104B10001F02DC01CB01BC01CD010E944900DC0178
:104B2000CB0198AB8FA70FC088EC90E09EA78DA714
:104B30008DA59EA50197F1F79EA78DA78FA598A992
:104B4000019798AB8FA78FA598A9009769F714C014
:104B500069A97AA98BA99CA90E944900DC01CB0113
:104B600098AB8FA78FA598A99CA78BA78BA59CA571
:104B70000197F1F79CA78BA782E060E040E00E94DC
:104B80008E0682E061E040E00E948E0682E062E0F4
:104B900041E00E948E0682E063E040E00E948E06C3
:104BA00080E090E0A8ECB1E48FA398A7A9A7BAA7EA
:104BB0006FA178A589A59AA520E030E04AEF54E4DA
:104BC0000E941F02DC01CB018BA39CA3ADA3BEA35B
:104BD0006BA17CA18DA19EA120E030E040E85FE3C5
:104BE0000E94790388232CF481E090E09AA389A3A2
:104BF0003FC06BA17CA18DA19EA120E03FEF4FE7BC
:104C000057E40E94190318164CF56FA178A589A5E1
:104C10009AA520E030E040E251E40E941F02DC014E
:104C2000CB01BC01CD010E944900DC01CB019AA35C
:104C300089A30FC088EC90E098A38F8F8F8D98A1E7
:104C40000197F1F798A38F8F89A19AA101979AA351
:104C500089A389A19AA1009769F714C06BA17CA1CF
:104C60008DA19EA10E944900DC01CB019AA389A3DA
:104C700089A19AA19E8F8D8F8D8D9E8D0197F1F7C1
:104C80009E8F8D8F82E060E041E00E948E0682E080
:104C900061E040E00E948E0682E062E041E00E9416
:104CA0008E0682E063E040E00E948E0680E090E0A5
:104CB000A8ECB1E4898F9A8FAB8FBC8F698D7A8D08
:104CC0008B8D9C8D20E030E04AEF54E40E941F025F
:104CD000DC01CB018D8B9E8BAF8BB88F6D897E896C
:104CE0008F89988D20E030E040E85FE30E947903EF
:104CF00088232CF481E090E09C8B8B8B3FC06D89E6
:104D00007E898F89988D20E03FEF4FE757E40E941E
:104D1000190318164CF5698D7A8D8B8D9C8D20E0CA
:104D200030E040E251E40E941F02DC01CB01BC01F3
:104D3000CD010E944900DC01CB019C8B8B8B0FC005
:104D400088EC90E09A8B898B89899A890197F1F791
:104D50009A8B898B8B899C8901979C8B8B8B8B89F8
:104D60009C89009769F714C06D897E898F89988D19
:104D70000E944900DC01CB019C8B8B8B8B899C8929
:104D8000988B8F878F8598890197F1F7988B8F87FC
:104D900082E060E041E00E948E0682E061E040E057
:104DA0000E948E0682E062E040E00E948E0682E071
:104DB00063E040E00E948E0680E090E0A8ECB1E461
:104DC0008B879C87AD87BE876B857C858D859E850F
:104DD00020E030E04AEF54E40E941F02DC01CB01E6
:104DE0008F839887A987BA876F81788589859A8507
:104DF00020E030E040E85FE30E94790388232CF450
:104E000081E090E09E838D833FC06F8178858985A6
:104E10009A8520E03FEF4FE757E40E9419031816E8
:104E20004CF56B857C858D859E8520E030E040E2E9
:104E300051E40E941F02DC01CB01BC01CD010E94A4
:104E40004900DC01CB019E838D830FC088EC90E08C
:104E50009C838B838B819C810197F1F79C838B834F
:104E60008D819E8101979E838D838D819E81009788
:104E700069F714C06F81788589859A850E944900F9
:104E8000DC01CB019E838D838D819E819A838983F2
:104E900089819A810197F1F79A838983DE01A25073
:104EA000BF4FFE01E250FF4F80818F5F8C93FE0168
:104EB000E250FF4F8081282F30E0FE01E350FF4F8A
:104EC0008081992787FD9095281739070CF419CA16
:104ED00082E066E040E00E948E0682E067E040E00B
:104EE0000E948E06CF5FDE4F0FB6F894DEBF0FBE76
:104EF000CDBFCF91DF911F910F910895DF93CF9395
:104F0000CDB7DEB7E3970FB6F894DEBF0FBECDBFC7
:104F1000CE0101969BA78AA7E8EAF0E0FDA7ECA7DF
:104F2000F0E1FEA7ECA5FDA500808CA59DA501964E
:104F30009DA78CA7EAA5FBA500828AA59BA5019643
:104F40009BA78AA79EA591509EA7EEA5EE2351F799
:104F5000CE0101960E94F80C0E94F10E83E0898B2D
:104F6000CE0141960E94C70A0E943E0F0E94AD19D1
:104F7000CE01499698AB8FA7E7E9F0E0FAABE9AB31
:104F8000F1E1FBABE9A9FAA9008089A99AA90196E8
:104F90009AAB89ABEFA5F8A900828FA598A90196D5
:104FA00098AB8FA79BA991509BABEBA9EE2351F730
:104FB00084EC99E20E941B0CCE0149960E94FE0AE5
:104FC00081E48093C400AFE5B0E0EFE5F0E08081DC
:104FD00080688C93E3960FB6F894DEBF0FBECDBF0A
:104FE000CF91DF910895DF93CF93CDB7DEB72997A7
:104FF0000FB6F894DEBF0FBECDBF88E08E838E81E2
:10500000882F90E02DB73EB7281B390B0FB6F894C8
:105010003EBF0FBE2DBF8DB79EB70196998788877B
:1050200088859985009699878887288539853D8365
:105030002C831B821A821F8219820E947E2719826A
:1050400010C08C819D812E81622F0E94AB0E8C81BD
:105050009D810E941429833419F481E0898301C061
:1050600019828981882369F3EC81FD818081EC813B
:10507000FD812181EC81FD819281622F492F0E9467
:10508000E5288B83EC81FD812481EC81FD81958174
:1050900080E3622F492F0E94E5288A830E943E0FF9
:1050A0000E94A31980E060E00E940F1980E690E062
:1050B0000E94E61880E067E00E940F198B81882F1C
:1050C00090E00E9480198B81843618F480E20E945F
:1050D0006B1480E06FE00E940F19EC81FD818681E6
:1050E000823551F0EC81FD818581803351F4EC8172
:1050F000FD818481803329F488E690E00E94E618DF
:1051000004C085E790E00E94E61880E06BE10E9411
:105110000F198A81992787FD90950E948019EC814B
:10512000FD8183818634E9F48B81482F50E0CA01E8
:105130009C01220F331FC9019695982F88279795B8
:105140008795821B930B840F951F24E630E0B901ED
:105150000E94C22ACB01982F81E0692F0E94070F7D
:105160001CC08B81482F50E0CA019C01220F331FC5
:10517000C9019695982F882797958795821B930B41
:10518000840F951F24E630E0B9010E94C22ACB01AA
:10519000982F80E0692F0E94070FEC81FD818681A6
:1051A000823549F49F8181E06A81492F0E94DC1990
:1051B0008A818F8344CF9F8180E06A81492F0E943A
:1051C000DC198A8181958F833ACFDF93CF9300D00A
:1051D0000F92CDB7DEB789836A834B838981282FED
:1051E00030E084E690E0AC01249FC001259F900D43
:1051F000349F900D1124482F8A81882F90E09C01C4
:10520000220F331FC901880F991F880F991F820F22
:10521000931F942F980F8B81890F805D0F900F90B3
:105220000F90CF91DF910895DF93CF9300D00F922D
:10523000CDB7DEB79A83898389819A81FC0137963D
:105240008081853459F489819A81FC0137961082D6
:10525000E981FA818081803321F40BC089E48B835A
:105260008CC0E981FA818081813319F089E48B83D4
:1052700084C089819A81FC0131968081803378F0E5
:1052800089819A81FC01319680818A3340F4898139
:105290009A81FC0132968081803398F003C089E4C2
:1052A0008B836BC089819A81FC01329680818A331D
:1052B00040F489819A81FC0133968081863421F4FF
:1052C0000DC089E48B8359C089819A81FC01339692
:1052D0008081823419F089E48B834FC089819A815F
:1052E000FC0134968081803378F089819A81FC01B9
:1052F00034968081853340F489819A81FC0135960A
:105300008081803358F103C089E48B8336C0898162
:105310009A81FC01359680818A3300F589819A81D2
:10532000FC0134968081843389F489819A81FC015F
:1053300035968081803338F089819A81FC013596D9
:105340008081863318F089E48B8317C089819A8124
:10535000FC01369680818C3421F40DC089E48B8366
:105360000CC089819A81FC0136968081823519F0C2
:1053700089E48B8302C083E48B838B810F900F9031
:105380000F90CF91DF910895DF93CF93CDB7DEB724
:105390008091BE00893009F056C08091BF008530F1
:1053A00009F051C08091C000893009F042C080915D
:1053B000C100853091F58091C200823001F5809165
:1053C000C300813061F48091C400813421F480E510
:1053D0008093C40049C081E48093C40045C080919B
:1053E000C3008F5F8093C3001092BE001092BF0075
:1053F0001092C0001092C1001092C20035C080917E
:10540000C2008F5F8093C2001092BE001092BF0056
:105410001092C0001092C10027C01092BE001092DE
:10542000BF001092C0008091C1008F5F8093C100C7
:105430001BC01092BE001092BF008091C0008F5F11
:105440008093C00011C08091BE00893041F4109259
:10545000BE008091BF008F5F8093BF0005C0809128
:10546000BE008F5F8093BE000E94392ACF91DF91EA
:105470000895DF93CF93CDB7DEB722E830E081E027
:1054800066E0A9010E9451198091C400813441F461
:1054900029E830E081E065E1A9010E94511907C0C7
:1054A0002CE830E081E065E1A9010E94511981E01A
:1054B0006CE00E940F198091C300882F90E00E9439
:1054C000801981E06DE00E940F198091C200882F41
:1054D00090E00E94801981E06EE04AE30E946A1920
:1054E00081E06FE00E940F198091C100882F90E049
:1054F0000E94801981E060E10E940F198091C00034
:10550000882F90E00E94801981E061E14AE30E94C7
:105510006A1981E062E10E940F198091BF00882F13
:1055200090E00E94801981E063E10E940F19809150
:10553000BE00882F90E00E94801980E20E946B14C8
:10554000CF91DF910895629FD001739FF001829FF8
:10555000E00DF11D649FE00DF11D929FF00D839F02
:10556000F00D749FF00D659FF00D9927729FB00D9F
:10557000E11DF91F639FB00DE11DF91FBD01CF01B2
:105580001124089597FB092E07260AD077FD04D031
:105590002ED006D000201AF4709561957F4F0895A3
:1055A000F6F7909581959F4F0895A1E21A2EAA1BB8
:1055B000BB1BFD010DC0AA1FBB1FEE1FFF1FA217C3
:1055C000B307E407F50720F0A21BB30BE40BF50BC0
:1055D000661F771F881F991F1A9469F76095709549
:1055E000809590959B01AC01BD01CF010895AA1B48
:1055F000BB1B51E107C0AA1FBB1FA617B70710F0BE
:10560000A61BB70B881F991F5A95A9F780959095EF
:10561000BC01CD0108952F923F924F925F926F92FD
:105620007F928F929F92AF92BF92CF92DF92EF9232
:10563000FF920F931F93CF93DF93CDB7DEB7CA1BB3
:10564000DB0B0FB6F894DEBF0FBECDBF09942A88DE
:10565000398848885F846E847D848C849B84AA8486
:10566000B984C884DF80EE80FD800C811B81AA8113
:10567000B981CE0FD11D0FB6F894DEBF0FBECDBFDE
:10568000ED010895FB019F01E8944230C4F04532DA
:10569000B4F44A3029F497FB1EF4909581959F4FFE
:1056A000642F77270E94F72A805D8A330CF0895D8A
:1056B0008193CB010097A1F716F45DE2519310821C
:1056C000C9010C94632BDC01FC01672F71917723D6
:1056D000E1F7329704C07C916D9370836291AE17AD
:0A56E000BF07C8F30895F894FFCF48
:1056EA0053706565643A2000446972656374696F32
:1056FA006E3A202B00446972656374696F6E3A20B2
:10570A002D0054696D653A2000414D00504D00004E
:10571A000000000000000000000100000005040174
:10572A0000000000851E00000100000001000301C6
:08573A000000000080250000C2
:00000001FF
